:100000000C9462000C94C3040C949C040C948A001D
:100010000C948A000C948A000C948A000C948A0038
:100020000C94EA040C948A000C948A000C948A00C4
:100030000C948A000C948A000C948A000C948A0018
:100040000C9452040C948A000C9420040C94FA032F
:100050000C948A000C948A000C948A000C948A00F8
:100060000C948A000C948A000000000024002700F1
:100070002A0000000000250028002B0000000008D6
:10008000000201000003040700000000000000005F
:1000900000000000230026002900040404040404D6
:1000A0000404020202020202030303030303010227
:1000B00004081020408001020408102001020408F6
:1000C00010209D0511241FBECFEFD8E0DEBFCDBFAD
:1000D00026E0A0EDB4E001C01D92A939B207E1F716
:1000E00014E0A0E0B1E0E2E5F9E202C005900D9273
:1000F000A03DB107D9F710E0C2E6D0E004C02197D7
:10010000FE010E94A114C136D107C9F70E94E10582
:100110000C94A7140C940000AEE8B5E011968C93F3
:10012000119790E0FC01E255FF4FE4911496EC9397
:100130001497FC01E656FF4FE491F0E0EE0FFF1F2D
:10014000E057FF4F8591949113969C938E9312974D
:10015000089580918E05833011F410928E050895D4
:100160000F931F93CF93DF93E0916E06F0916F068C
:100170004091F004808510E0481708F064C0142F07
:1001800011700091EF0401114FC0842F90E0880F8F
:10019000991FE80FF91F0184F285E02D2CEE3FEF47
:1001A000112311F024E130E0C091ED04D091EE0470
:1001B0002C0F3D1FC90163E470E00E948D14E61707
:1001C000F70760F0C90168E270E00E948D146F5F6C
:1001D0007F4F81E090E06E177F0710F52C0F3D1FD9
:1001E000C90163E470E00E948D14E617F70750F030
:1001F000C90168E270E00E948D146F5F7F4F6E1737
:100200007F0760F42C0F3D1FC90163E470E00E947A
:100210008D14E617F707E8F41FEF15C082E090E0B1
:100220009093EC048093EB040F5F0093EF048091B4
:10023000EB049091EC040817190628F01092EF04D3
:100240004F5F4093F004812FDF91CF911F910F9169
:100250000895C90168E270E00E948D146F5F7F4FBE
:100260006E177F07C8F283E090E0DACFAF92BF92BB
:10027000CF92DF92EF92FF920F931F93CF93DF9372
:100280006C017B018B01040F151FEB015E01AE18A1
:10029000BF08C017D10759F06991D601ED91FC91C3
:1002A0000190F081E02DC6010995892B79F7C501F0
:1002B000DF91CF911F910F91FF90EF90DF90CF9042
:1002C000BF90AF900895FC01538D448D252F30E0F1
:1002D000842F90E0821B930B541710F0CF96089553
:1002E00001970895FC01918D828D981761F0A28D80
:1002F000AE0FBF2FB11D5D968C91928D9F5F9F7346
:10030000928F90E008958FEF9FEF0895FC01918DFB
:10031000828D981731F0828DE80FF11D858D90E068
:1003200008958FEF9FEF0895FC01918D228D892F05
:1003300090E0805C9F4F821B91098F7399270895ED
:1003400081EF94E00E94940121E0892B09F420E0E0
:10035000822F089580E090E0892B29F00E94A0016F
:1003600081110C9400000895FC01A48DA80FB92FF1
:10037000B11DA35ABF4F2C91848D90E001968F73CD
:100380009927848FA689B7892C93A089B1898C91EC
:10039000837080648C93938D848D981306C002883B
:1003A000F389E02D80818F7D80830895EF92FF9205
:1003B0000F931F93CF93DF93EC0181E0888F9B8D88
:1003C0008C8D98131AC0E889F989808185FF15C042
:1003D0009FB7F894EE89FF896083E889F989808165
:1003E0008370806480839FBF81E090E0DF91CF9134
:1003F0001F910F91FF90EF900895F62E0B8D10E056
:100400000F5F1F4F0F731127E02E8C8D8E110CC0C4
:100410000FB607FCFACFE889F989808185FFF5CF0F
:10042000CE010E94B401F1CFEB8DEC0FFD2FF11D39
:10043000E35AFF4FF0829FB7F8940B8FEA89FB894C
:1004400080818062CFCFCF93DF93EC01888D8823AA
:10045000B9F0AA89BB89E889F9898C9185FD03C027
:10046000808186FD0DC00FB607FCF7CF8C9185FF0C
:10047000F2CF808185FFEDCFCE010E94B401E9CF9C
:10048000DF91CF91089590E0FC01E458FF4F249153
:10049000FC01E255FF4F3491FC01E656FF4FE49119
:1004A000EE23C9F0222339F0233001F1A8F42130E2
:1004B00019F1223029F1F0E0EE0FFF1FEE58FF4F47
:1004C000A591B4918FB7F894EC91611126C0309545
:1004D0003E233C938FBF08952730A9F02830C9F000
:1004E000243049F7809180008F7D03C08091800087
:1004F0008F7780938000DFCF84B58F7784BDDBCF8B
:1005000084B58F7DFBCF8091B0008F778093B00052
:10051000D2CF8091B0008F7DF9CF3E2BDACFCF9331
:10052000DF9390E0FC01E255FF4F249186569F4FE8
:10053000FC0184918823D1F090E0880F991FFC0181
:10054000E859FF4FA591B491FC01EE58FF4FC591BA
:10055000D49161110EC09FB7F8948C91E22FE09571
:100560008E238C932881E223E8839FBFDF91CF9174
:1005700008958FB7F894EC91E22BEC938FBFF6CFF0
:100580003FB7F8948091D5049091D604A091D704F8
:10059000B091D80426B5A89B05C02F3F19F001964D
:1005A000A11DB11D3FBFBA2FA92F982F8827BC01CD
:1005B000CD01620F711D811D911D43E0660F771FF4
:1005C000881F991F4A95D1F708958F929F92AF92F5
:1005D000BF92CF92DF92EF92FF924B015C010E949B
:1005E000C0026B017C010E94C0026C197D098E095A
:1005F0009F09683E734081059105A8F321E0821AA6
:100600009108A108B10888EEC80E83E0D81EE11C4D
:10061000F11C81149104A104B10429F7FF90EF901B
:10062000DF90CF90BF90AF909F908F9008950895E6
:10063000FC0101900020E9F73197AF01481B590BED
:10064000BC0181EF94E00C94360186E191E00C94BA
:100650001803CF93DF930E941803EC0188E191E027
:100660000E9418038C0F9D1FDF91CF9108950F9367
:100670001F93CF93DF93CDB7DEB7A1970FB6F89452
:10068000DEBF0FBECDBF19A2FE01B1968B019C014A
:100690000F7011272227332724E0969587957795A9
:1006A00067952A95D1F740E30A300CF047E3400FF5
:1006B0004293611571058105910541F710E000E055
:1006C000309721F0CF010E9418038C0188E191E05E
:1006D0000E941803800F911FA1960FB6F894DEBFF9
:1006E0000FBECDBFDF91CF911F910F9108957F92E3
:1006F0008F929F92AF92BF92CF92DF92EF92FF9232
:100700000F931F93CF93DF93782EEA01E0916E064B
:10071000F0916F063F968B010C5E1F4F43E4C42E91
:10072000D12CC801B6010E948D145B0158E2E52E60
:10073000F12CC801B7010E948D148B010F5F1F4F70
:100740006497CE01B6010E948D144B01CE01B70112
:100750000E948D14EB01219624513109C901B60183
:100760000E948D146B01C901B7010E948D146F5F47
:100770007F4F20E030E0A901A0E0808191818A15BF
:100780009B0570F10817190758F18281938188152C
:10079000990518F1C817D90728F1220F331F441FF4
:1007A000551F21603496AF5F7A12E7CF20936A0617
:1007B00030936B0640936C0650936D0681E0DF9199
:1007C000CF911F910F91FF90EF90DF90CF90BF904E
:1007D000AF909F908F907F9008958C159D0510F499
:1007E00080E0EDCF68177907D8F3220F331F441F3D
:1007F000551FD8CF1F920F920FB60F9211242F932F
:100800003F934F935F936F937F938F939F93AF9398
:10081000BF93EF93FF9381EF94E00E94B401FF91A7
:10082000EF91BF91AF919F918F917F916F915F9168
:100830004F913F912F910F900FBE0F901F901895E1
:100840001F920F920FB60F9211242F938F939F93A5
:10085000EF93FF93E0910105F09102058081E09113
:100860000705F091080582FD1BC0908180910A0563
:100870008F5F8F7320910B05821741F0E0910A057D
:10088000F0E0EF50FB4F958F80930A05FF91EF91B9
:100890009F918F912F910F900FBE0F901F901895E1
:1008A0008081F4CF1F920F920FB60F9211242F93D5
:1008B0003F938F939F93AF93BF938091D104909177
:1008C000D204A091D304B091D4043091D00426E096
:1008D000230F2D3758F50296A11DB11D2093D0048A
:1008E0008093D1049093D204A093D304B093D40402
:1008F0008091D5049091D604A091D704B091D804EA
:100900000196A11DB11D8093D5049093D604A093A8
:10091000D704B093D804BF91AF919F918F913F912D
:100920002F910F900FBE0F901F90189529E8230F5D
:100930000396A11DB11DD2CF1F920F920FB60F9239
:1009400011242F933F934F935F936F937F938F93D4
:100950009F93AF93BF93EF93FF93E0910201F091C8
:1009600003010995FF91EF91BF91AF919F918F91F5
:100970007F916F915F914F913F912F910F900FBE9B
:100980000F901F9018951F920F920FB60F9211247F
:100990002F933F934F935F936F937F938F939F9387
:1009A000AF93BF93EF93FF93E0910001F0910101AA
:1009B0000995FF91EF91BF91AF919F918F917F9199
:1009C0006F915F914F913F912F910F900FBE0F90BC
:1009D0001F9018951F920F920FB60F9211242F930C
:1009E0003F934F935F936F937F938F939F93AF93B7
:1009F000BF93EF93FF93E0919005F0919105908163
:100A000080919205982320919305309194052F3F72
:100A1000320731F02F5F3F4F3093940520939305B9
:100A200080918E05811135C0911116C020919305DA
:100A3000309194052536310558F010929505309384
:100A400098052093970581E08093960580938E0505
:100A5000109294051092930580917C06882341F0B2
:100A600080917B06911161C061E0811161C02D9A76
:100A7000FF91EF91BF91AF919F918F917F916F9176
:100A80005F914F913F912F910F900FBE0F901F904C
:100A9000189580918E058130A1F49923E9F2E091B7
:100AA00096058E0F80939605F0E0EE0FFF1FE2573C
:100AB000FA4F20919305309194053287218782E087
:100AC000C5CF80918E05823039F5911119C0E09122
:100AD000960581E0E43620F08093950583E0B6CF5B
:100AE0008E0F80939605F0E0EE0FFF1FE257FA4F4E
:100AF00020919305309194053287218781E0A6CF1C
:100B000020919305309194052536310508F4A4CF42
:100B100083E080938E05A0CF80918E05833009F00D
:100B20009BCF992309F494CF97CF882321F060E0DD
:100B30000E9443029DCF2D989BCFCF93DF93E1EF8F
:100B4000F4E01382128288EE93E0A0E0B0E08483A8
:100B50009583A683B78388E091E09183808385ECB9
:100B600090E09587848784EC90E09787868780EC77
:100B700090E0918B808B81EC90E0938B828B82EC68
:100B800090E0958B848B86EC90E0978B868B118E12
:100B9000128E138E148ECEE8D5E0D0938D06C093BE
:100BA0008C0680E00E948C00EBE7F6E01082118258
:100BB000D0936F06C0936E0687E0DF91CF910C94BF
:100BC0008C00789484B5826084BD84B5816084BDD6
:100BD00085B5826085BD85B5816085BD80916E00DB
:100BE000816080936E00109281008091810082600C
:100BF0008093810080918100816080938100809149
:100C000080008160809380008091B1008460809337
:100C1000B1008091B00081608093B00080917A0033
:100C2000846080937A0080917A00826080937A0059
:100C300080917A008E7F80937A0080917A0080681C
:100C400080937A001092C100E0910105F0910205B5
:100C500082E08083E091FD04F091FE041082E09137
:100C6000FF04F091000597E6908310920905E0914A
:100C70000505F091060596E09083E0910305F0915B
:100C80000405908190619083E0910305F091040543
:100C9000908198609083E0910305F0910405908124
:100CA00090689083E0910305F091040590819F7D09
:100CB0009083F8948093B0008093B10082E3809396
:100CC000B3008093B4001092B20084E0809370006F
:100CD0000E94A900789460E080918F050E948F02A5
:100CE00061E089E00E948F0261E08AE00E948F0249
:100CF00061E08BE00E948F0261E08CE00E948F0235
:100D000061E084E00E948F0261E086E00E948F0231
:100D100061E085E00E948F0261E08DE00E948F0219
:100D200061E083E00E948F0261E088E00E948F0210
:100D300061E082E00E948F0261E084E00E94430251
:100D400060E082E00E94430260E088E00E9443028B
:100D500060E08DE00E94430261E083E00E94430274
:100D600061E086E00E94430261E085E00E94430268
:100D700064EF71E080E090E00E94E50284E891E099
:100D80000E9429038BE191E00E94290384E891E00D
:100D90000E94290361E089E00E94430261E08AE049
:100DA0000E94430261E08BE00E94430261E08CE01C
:100DB0000E94430268E572E080E090E00E94E50254
:100DC00060E08DE00E94430260E089E00E944302FF
:100DD00060E08AE00E94430260E08BE00E944302F0
:100DE00060E08CE00E94430260E084E00E944302E5
:100DF00064EF71E080E090E00E94E50261E084E051
:100E00000E94430262E370E080E090E00E94E5020D
:100E10008DE791E00E94290386EE91E00E9429036C
:100E20008DE791E00E94290368EE73E080E090E096
:100E30000E94E50261E08DE00E94430260E084E0F0
:100E40000E94430260ED77E080E090E00E94E502BE
:100E500061E084E00E9443028DE791E00E94290353
:100E600080E592E00E9429038DE791E00E9429032A
:100E7000C1E14C2E512C88248A94982C540115E001
:100E8000612E712CB0E12B2E312C60E083E00E94AA
:100E9000430284E893E10197F1F761E083E00E9467
:100EA000430280918E05833011F00C94C011809123
:100EB000D904811107C089EB92E00E94290381E0E7
:100EC0008093D90487E995E09093E7048093E60442
:100ED0008091960590E09093E9048093E804209136
:100EE0009505222321F010929505109296052091E8
:100EF00095052093EA041092DE041092DF0410920C
:100F0000E0041092E10420E82093690620919905FD
:100F100030919A05265831092C35310508F062C008
:100F20008430910521F580919B0590919C058197D6
:100F3000489708F057C080919D0590919E050897AD
:100F4000089708F04FC01092E2048092DE0490925D
:100F5000DF04A092E004B092E10481E88093690686
:100F600088E090E09093600680935F0622C184340D
:100F70009105C1F580919B0590919C058254910942
:100F80008F9780F520E332E040E956E060E372E0BD
:100F900080E20E947703882329F1E091E604F09132
:100FA000E704EA57FF4F8081918108970897D0F4B2
:100FB00080916A0690916B06A0916C06B0916D06C7
:100FC0008093DE049093DF04A093E004B093E104E7
:100FD00080E28093E20488E090E09093DB048093C9
:100FE000DA04C0CF4091E8045091E9044A31510538
:100FF00008F453C0E091E604F091E7048081918108
:101000000A9780F41092E2048092DE049092DF044A
:10101000A092E004B092E10481E08093690683E14C
:1010200090E0A0CF8281938184974A97B0F523E026
:1010300030E060E0C12CD12C760184819581089745
:10104000089758F58681978182319105E0F0809765
:1010500020F5CC0CDD1CEE1CFF1C6894C0F86F5F03
:101060002E5F3F4F34962417350738F36093E20420
:10107000C092DE04D092DF04E092E004F092E1043A
:1010800083E190E0AACF8930910538F0419728F4A8
:10109000CC0CDD1CEE1CFF1CE2CF81E08093F00441
:1010A00089E793E09093EE048093ED041092EF04AF
:1010B0000E94B000813011F00C94D011C12CD12CC1
:1010C0007601C0E0E0916E06F0916F069085809108
:1010D000F0048917F8F40E94B000D82F0E94B000E5
:1010E000D1110CC0813011F00C94D011CC0CDD1C4E
:1010F000EE1CFF1C6894C0F8CF5FE4CFD13011F034
:101100000C94D01181110C94D011CC0CDD1CEE1C70
:10111000FF1CF2CF8C2F90E09093680680936706B7
:10112000C0926A06D0926B06E0926C06F0926D0651
:101130008C2D8F7390E090936406809363069601E4
:1011400046E0369527954A95E1F72F71332730937E
:10115000620620936106960122273071232B31F419
:10116000805C9F4F909364068093630680E8D3FC75
:1011700088E88093690681859285833E984028F4AB
:10118000809169068160809369068FE090E090937A
:10119000600680935F06C093E204C092DE04D092A2
:1011A000DF04E092E004F092E1049093DB0480938A
:1011B000DA0461E086E00E94430261E085E00E947B
:1011C000430261E084E00E9443028091DE0490913A
:1011D000DF04A091E004B091E1048D389247A64D60
:1011E000B24809F048C060E088E00E94430260E035
:1011F00089E00E94430260E08AE00E94430260E0CE
:101200008BE00E94430260E08CE00E94430260E0B9
:1012100084E00E9443026CE271E080E090E00E9472
:10122000E50261E084E00E94430261E08DE00E94FB
:10123000430261E089E00E94430261E08AE00E948B
:10124000430261E08BE00E94430261E08CE00E9477
:1012500043020E9425036091DE047091DF048091B7
:10126000E0049091E1040E94370385E593E00E9439
:1012700029030E94A9008091DE049091DF04A091CF
:10128000E004B091E1048D3A9245A64DB24809F0D0
:1012900048C060E088E00E94430261E089E00E946B
:1012A000430260E08AE00E94430260E08BE00E941B
:1012B000430260E08CE00E94430260E084E00E9410
:1012C00043026CE271E080E090E00E94E50261E0A0
:1012D00084E00E94430261E08DE00E94430261E0ED
:1012E00089E00E94430261E08AE00E94430261E0DB
:1012F0008BE00E94430261E08CE00E9443020E9466
:1013000025036091DE047091DF048091E0049091E8
:10131000E1040E94370380E693E00E9429030E94C3
:10132000A9008091DE049091DF04A091E004B091C7
:10133000E1048D399246A64DB24809F048C060E0FC
:1013400088E00E94430260E089E00E94430261E07D
:101350008AE00E94430260E08BE00E94430260E06A
:101360008CE00E94430260E084E00E9443026CE251
:1013700071E080E090E00E94E50261E084E00E947C
:10138000430261E08DE00E94430261E089E00E9437
:10139000430261E08AE00E94430261E08BE00E9428
:1013A000430261E08CE00E9443020E9425036091A9
:1013B000DE047091DF048091E0049091E1040E94CA
:1013C00037038BE693E00E9429030E94A9008091D5
:1013D000DE049091DF04A091E004B091E1048D342B
:1013E000924BA64DB24809F048C060E088E00E94E8
:1013F000430261E089E00E94430261E08AE00E94CA
:10140000430260E08BE00E94430260E08CE00E94B7
:10141000430260E084E00E9443026CE271E080E0FD
:1014200090E00E94E50261E084E00E94430261E0F6
:101430008DE00E94430261E089E00E94430261E086
:101440008AE00E94430261E08BE00E94430261E077
:101450008CE00E9443020E9425036091DE0470919B
:10146000DF048091E0049091E1040E94370386E755
:1014700093E00E9429030E94A9008091DE049091CC
:10148000DF04A091E004B091E1048D369249A64DAD
:10149000B24809F048C060E088E00E94430260E082
:1014A00089E00E94430260E08AE00E94430261E01A
:1014B0008BE00E94430260E08CE00E94430260E007
:1014C00084E00E9443026CE271E080E090E00E94C0
:1014D000E50261E084E00E94430261E08DE00E9449
:1014E000430261E089E00E94430261E08AE00E94D9
:1014F000430261E08BE00E94430261E08CE00E94C5
:1015000043020E9425036091DE047091DF04809104
:10151000E0049091E1040E94370381E893E00E9487
:1015200029030E94A9008091DE049091DF04A0911C
:10153000E004B091E1048D35924AA64DB24809F01D
:1015400048C060E088E00E94430261E089E00E94B8
:10155000430260E08AE00E94430261E08BE00E9467
:10156000430260E08CE00E94430260E084E00E945D
:1015700043026CE271E080E090E00E94E50261E0ED
:1015800084E00E94430261E08DE00E94430261E03A
:1015900089E00E94430261E08AE00E94430261E028
:1015A0008BE00E94430261E08CE00E9443020E94B3
:1015B00025036091DE047091DF048091E004909136
:1015C000E1040E9437038CE893E00E9429030E9403
:1015D000A9008091DE049091DF04A091E004B09115
:1015E000E1048D3C9243A64DB24809F048C060E04A
:1015F00088E00E94430260E089E00E94430261E0CB
:101600008AE00E94430261E08BE00E94430260E0B6
:101610008CE00E94430260E084E00E9443026CE29E
:1016200071E080E090E00E94E50261E084E00E94C9
:10163000430261E08DE00E94430261E089E00E9484
:10164000430261E08AE00E94430261E08BE00E9475
:10165000430261E08CE00E9443020E9425036091F6
:10166000DE047091DF048091E0049091E1040E9417
:10167000370387E993E00E9429030E94A900809123
:10168000DE049091DF04A091E004B091E1048D3E6E
:101690009241A64DB24809F048C060E088E00E943F
:1016A000430261E089E00E94430261E08AE00E9417
:1016B000430261E08BE00E94430260E08CE00E9404
:1016C000430260E084E00E9443026CE271E080E04B
:1016D00090E00E94E50261E084E00E94430261E044
:1016E0008DE00E94430261E089E00E94430261E0D4
:1016F0008AE00E94430261E08BE00E94430261E0C5
:101700008CE00E9443020E9425036091DE047091E8
:10171000DF048091E0049091E1040E94370382EAA3
:1017200093E00E9429030E94A9008091DE04909119
:10173000DF04A091E004B091E1048D3D9242A64DFA
:10174000B24809F048C060E088E00E94430260E0CF
:1017500089E00E94430260E08AE00E94430260E068
:101760008BE00E94430261E08CE00E94430260E053
:1017700084E00E9443026CE271E080E090E00E940D
:10178000E50261E084E00E94430261E08DE00E9496
:10179000430261E089E00E94430261E08AE00E9426
:1017A000430261E08BE00E94430261E08CE00E9412
:1017B00043020E9425036091DE047091DF04809152
:1017C000E0049091E1040E9437038DEA93E00E94C7
:1017D00029030E94A9008091DE049091DF04A0916A
:1017E000E004B091E1048F3E9041A64DB24809F06B
:1017F00048C060E088E00E94430261E089E00E9406
:10180000430260E08AE00E94430260E08BE00E94B5
:10181000430261E08CE00E94430260E084E00E94A9
:1018200043026CE271E080E090E00E94E50261E03A
:1018300084E00E94430261E08DE00E94430261E087
:1018400089E00E94430261E08AE00E94430261E075
:101850008BE00E94430261E08CE00E9443020E9400
:1018600025036091DE047091DF048091E004909183
:10187000E1040E94370388EB93E00E9429030E9451
:10188000A9008091DE049091DF04A091E004B09162
:10189000E1048F3C9043A64DB24809F044C060E09B
:1018A00089E00E94430260E08AE00E94430261E016
:1018B0008BE00E94430261E08CE00E94430261E001
:1018C00082E00E94430268EE73E080E090E00E94B4
:1018D000E50260E082E00E94430261E08DE00E9448
:1018E000430261E089E00E94430261E08AE00E94D5
:1018F000430261E08BE00E94430261E08CE00E94C1
:1019000043020E9425036091DE047091DF04809100
:10191000E0049091E1040E94370384EC93E00E947C
:1019200029030E94A9008091DE049091DF04A09118
:10193000E004B091E1048733984CA64DB24809F019
:1019400044C061E089E00E94430260E08AE00E94B6
:10195000430260E08BE00E94430260E08CE00E9462
:10196000430261E082E00E94430268EE73E080E09F
:1019700090E00E94E50260E082E00E94430261E0A4
:101980008DE00E94430261E089E00E94430261E031
:101990008AE00E94430261E08BE00E94430261E022
:1019A0008CE00E9443020E9425036091DE04709146
:1019B000DF048091E0049091E1040E9437038BECF6
:1019C00093E00E9429030E94A9008091DE04909177
:1019D000DF04A091E004B091E1048F399046A64D58
:1019E000B24809F044C060E089E00E94430261E02F
:1019F0008AE00E94430260E08BE00E94430260E0C4
:101A00008CE00E94430261E082E00E94430268EEA3
:101A100073E080E090E00E94E50260E082E00E94D6
:101A2000430261E08DE00E94430261E089E00E9490
:101A3000430261E08AE00E94430261E08BE00E9481
:101A4000430261E08CE00E9443020E942503609102
:101A5000DE047091DF048091E0049091E1040E9423
:101A6000370382ED93E00E9429030E94A900809130
:101A7000DE049091DF04A091E004B091E1048F387E
:101A80009047A64DB24809F044C061E089E00E9449
:101A9000430261E08AE00E94430260E08BE00E9422
:101AA000430260E08CE00E94430261E082E00E9419
:101AB000430268EE73E080E090E00E94E50260E09F
:101AC00082E00E94430261E08DE00E94430261E0F7
:101AD00089E00E94430261E08AE00E94430261E0E3
:101AE0008BE00E94430261E08CE00E9443020E946E
:101AF00025036091DE047091DF048091E0049091F1
:101B0000E1040E94370389ED93E00E9429030E94BB
:101B1000A9008091DE049091DF04A091E004B091CF
:101B2000E1048F3A9045A64DB24809F044C060E008
:101B300089E00E94430260E08AE00E94430261E083
:101B40008BE00E94430260E08CE00E94430261E06F
:101B500082E00E94430268EE73E080E090E00E9421
:101B6000E50260E082E00E94430261E08DE00E94B5
:101B7000430261E089E00E94430261E08AE00E9442
:101B8000430261E08BE00E94430261E08CE00E942E
:101B900043020E9425036091DE047091DF0480916E
:101BA000E0049091E1040E94370385EE93E00E94E7
:101BB00029030E94A9008091DE049091DF04A09186
:101BC000E004B091E1048F30904FA64DB24809F087
:101BD00044C061E089E00E94430260E08AE00E9424
:101BE000430261E08BE00E94430260E08CE00E94CF
:101BF000430261E082E00E94430268EE73E080E00D
:101C000090E00E94E50260E082E00E94430261E011
:101C10008DE00E94430261E089E00E94430261E09E
:101C20008AE00E94430261E08BE00E94430261E08F
:101C30008CE00E9443020E9425036091DE047091B3
:101C4000DF048091E0049091E1040E94370382EF69
:101C500093E00E9429030E94A9008091DE049091E4
:101C6000DF04A091E004B091E1048730984FA64DC5
:101C7000B24809F044C060E089E00E94430261E09C
:101C80008AE00E94430261E08BE00E94430260E030
:101C90008CE00E94430261E082E00E94430268EE11
:101CA00073E080E090E00E94E50260E082E00E9444
:101CB000430261E08DE00E94430261E089E00E94FE
:101CC000430261E08AE00E94430261E08BE00E94EF
:101CD000430261E08CE00E9443020E942503609170
:101CE000DE047091DF048091E0049091E1040E9491
:101CF000370385EF93E00E9429030E94A900809199
:101D0000DE049091DF04A091E004B091E1048534F9
:101D10009A4BA64DB24809F044C061E089E00E94A8
:101D2000430261E08AE00E94430261E08BE00E948E
:101D3000430260E08CE00E94430261E082E00E9486
:101D4000430268EE73E080E090E00E94E50260E00C
:101D500082E00E94430261E08DE00E94430261E064
:101D600089E00E94430261E08AE00E94430261E050
:101D70008BE00E94430261E08CE00E9443020E94DB
:101D800025036091DE047091DF048091E00490915E
:101D9000E1040E94370384E094E00E9429030E943A
:101DA000A9008091DE049091DF04A091E004B0913D
:101DB000E104853C9A43A64DB24809F044C060E076
:101DC00089E00E94430260E08AE00E94430260E0F2
:101DD0008BE00E94430261E08CE00E94430261E0DC
:101DE00082E00E94430268EE73E080E090E00E948F
:101DF000E50260E082E00E94430261E08DE00E9423
:101E0000430261E089E00E94430261E08AE00E94AF
:101E1000430261E08BE00E94430261E08CE00E949B
:101E200043020E9425036091DE047091DF048091DB
:101E3000E0049091E1040E94370383E194E00E9462
:101E400029030E94A9008091DE049091DF04A091F3
:101E5000E004B091E104873F9840A64DB24809F0F4
:101E600044C061E089E00E94430260E08AE00E9491
:101E7000430260E08BE00E94430261E08CE00E943C
:101E8000430261E082E00E94430268EE73E080E07A
:101E900090E00E94E50260E082E00E94430261E07F
:101EA0008DE00E94430261E089E00E94430261E00C
:101EB0008AE00E94430261E08BE00E94430261E0FD
:101EC0008CE00E9443020E9425036091DE04709121
:101ED000DF048091E0049091E1040E94370388E1DF
:101EE00094E00E9429030E94A9008091DE04909151
:101EF000DF04A091E004B091E10485339A4CA64D33
:101F0000B24881F560E089E00E94430261E08AE026
:101F10000E94430260E08BE00E94430261E08CE09B
:101F20000E94430261E082E00E9443026AEF70E097
:101F300080E090E00E94E50260E082E00E944302BF
:101F40000E9425036091DE047091DF048091E0041B
:101F50009091E1040E9437038DE194E00E942903EF
:101F60000E94A9008091DE049091DF04A091E0041A
:101F7000B091E104853B9A44A64DB24881F561E0F9
:101F800089E00E94430261E08AE00E94430260E02F
:101F90008BE00E94430261E08CE00E94430261E01A
:101FA00082E00E9443026AEF70E080E090E00E94CD
:101FB000E50260E082E00E9443020E9425036091F6
:101FC000DE047091DF048091E0049091E1040E94AE
:101FD000370389E294E00E9429030E94A9008091BE
:101FE000DE049091DF04A091E004B091E104873118
:101FF000984EA64DB24809F044C061E089E00E94C5
:10200000430260E08AE00E94430261E08BE00E94AC
:10201000430261E08CE00E94430261E082E00E94A2
:10202000430268EE73E080E090E00E94E50260E029
:1020300082E00E94430261E08DE00E94430261E081
:1020400089E00E94430261E08AE00E94430261E06D
:102050008BE00E94430261E08CE00E9443020E94F8
:1020600025036091DE047091DF048091E00490917B
:10207000E1040E94370383E394E00E9429030E9455
:10208000A9008091DE049091DF04A091E004B0915A
:10209000E1048F379048A64DB24809F06EC060E069
:1020A00088E00E94430260E089E00E94430260E011
:1020B0008AE00E94430260E08BE00E94430260E0FD
:1020C0008CE00E94430260E971E080E090E00E94B1
:1020D000E50261E089E00E94430261E08AE00E943B
:1020E000430261E08BE00E94430261E08CE00E94C9
:1020F000430260E084E00E94430264EF71E080E00C
:1021000090E00E94E50261E084E00E94430262E305
:1021100070E080E090E00E94E50260E08DE00E94C7
:1021200043020E9425036091DE047091DF048091D8
:10213000E0049091E1040E9437038DE791E00E9452
:10214000290386EE91E00E9429038DE791E00E9429
:10215000290368EE73E080E090E00E94E5028DE7DD
:1021600091E00E94290383E494E00E9429038DE713
:1021700091E00E9429030E94A9008091DE049091C1
:10218000DF04A091E004B091E1048F31904EA64DA0
:10219000B24809F040C060E088E00E94430261E07C
:1021A0008DE00E94430261E089E00E94430261E009
:1021B0008AE00E94430261E08BE00E94430261E0FA
:1021C0008CE00E94430260E086E00E94430261E0EE
:1021D00085E00E94430265E070E080E090E00E94AC
:1021E000E50261E086E00E9443020E9425036091BF
:1021F000DE047091DF048091E0049091E1040E947C
:1022000037038CEA94E00E94290362E370E080E0E7
:1022100090E00E94E5028091DE049091DF04A0919D
:10222000E004B091E1048F32904DA64DB248E1F543
:1022300060E088E00E94430261E089E00E9443027E
:1022400061E08AE00E94430261E08BE00E94430269
:1022500061E08CE00E94430261E086E00E9443025C
:1022600060E085E00E94430265E070E080E090E07D
:102270000E94E50261E085E00E9443020E9425037E
:102280006091DE047091DF048091E0049091E1049C
:102290000E94370386EB94E00E94290362E370E01A
:1022A00080E090E00E94E5028091DE049091DF04DE
:1022B000A091E004B091E104873C9843A64DB24858
:1022C00071F561E08DE00E94430261E088E00E94C8
:1022D000430261E089E00E94430261E08AE00E94DB
:1022E000430261E08BE00E94430261E08CE00E94C7
:1022F00043020E9425036091DE047091DF04809107
:10230000E0049091E1040E94370382EC94E00E9483
:1023100029036AEF70E080E090E00E94E50280917E
:10232000DE049091DF04A091E004B091E1048F3FBE
:102330009F4FAF4FBF4FE1F461E082E00E94430244
:1023400064E670E080E090E00E94E50260E082E0F8
:102350000E9443020E9425036091DE047091DF0415
:102360008091E0049091E1040E9437030E94A9004B
:1023700062E370E080E090E00E94E5020E94A90024
:1023800080E090E0892B11F40C9445070E94A00195
:10239000882311F40C9442070E9400000C94420719
:1023A000E0916E06F0916F068385948588974D972E
:1023B00008F046C0858596850C970B9708F040C0BD
:1023C00083E08093F0048CEB91E09093EE04809393
:1023D000ED041092EF040E94B000813089F50E9454
:1023E000B000C82F81112CC0C12CD12C7601E091F6
:1023F0006E06F0916F0690858091F004891708F0C1
:102400006AC00E94B000182FC330B1F00E94B00023
:10241000D82FC33021F40E94B000D81311C011305E
:1024200009F04FC0D1110CC0CC0CDD1CEE1CFF1C00
:102430006894C0F8CF5FDBCF0E94B000181731F36B
:102440008091E8049091E9048236910508F49DC0DA
:10245000E091E604F091E70482819381C397859728
:1024600008F093C0848195814A97439708F08DC006
:1024700020EB31E040E155E060EB71E08CE20E943E
:102480007703882309F481C080E38093E20480917C
:102490006A0690916B06A0916C06B0916D068093D0
:1024A000DE049093DF04A093E004B093E10482E0A3
:1024B00090E29093DD048093DC0489E090E00C943A
:1024C000ED071111BDCFD13009F0BACFCC0CDD1C16
:1024D000EE1CFF1CAFCF8C2F90E09093680680938A
:1024E0006706C0926A06D0926B06E0926C06F09284
:1024F0006D062C2D30E08D2DC43280F580E8809360
:10250000690630936406209363068D2D90E09093C6
:10251000620680936106E0FE03C088E88093690646
:102520008185928583379A4028F48091690681607D
:10253000809369063092600620925F06C093E204A1
:10254000C092DE04D092DF04E092E004F092E10455
:102550003092DB042092DA040C94D90890E990932D
:102560006906D7FE03C098E9909369063093640624
:10257000209363068F7790E09093620680936106C4
:10258000F0926606E0926506CBCF8091E8049091C8
:10259000E904CC97E9F5E091E604F091E704828143
:1025A0009381865891098D35910590F584819581A7
:1025B000CE978C9768F526E232E04CE256E064EF65
:1025C00071E08CE10E947703882311F1E091E60429
:1025D000F091E704EA58FF4F8081918107970897AF
:1025E000B8F480916A0690916B06A0916C06B09148
:1025F0006D068093DE049093DF04A093E004B09313
:10260000E1048CE18093E20486E090E00C94ED0715
:102610004091E8045091E904E091E604F091E70468
:10262000828193814232510519F59C01285031096C
:1026300027303105E8F4DF01AE5BBF4F2D913C91AF
:10264000285031092730310598F41092E204809225
:10265000DE049092DF04A092E004B092E10481E0F5
:10266000809369067092600660925F060C94D908A8
:102670008D57910987359105B0F54432510598F190
:1026800084819581CE978C9770F52EE032E04AE2F6
:1026900056E06EE072E080E10E947703882319F132
:1026A000E091E604F091E704EA5BFF4F80819181BD
:1026B00008970797C0F480916A0690916B06A091E5
:1026C0006C06B0916D068093DE049093DF04A093B6
:1026D000E004B093E10480E18093E2047092DB04B3
:1026E0006092DA04BFCFE091E604F091E7048281C2
:1026F0009381825491098F9708F052C08091E80429
:102700009091E90484309105F9F484819581819751
:10271000489708F045C0868197810897089708F088
:102720003FC01092E2048092DE049092DF04A092F7
:10273000E004B092E10481E0809369065092600663
:1027400040925F060C94D9088434910548F1848145
:102750009581815491098F9718F529E232E04BE772
:1027600056E069E272E080E20E9477038823C1F0BC
:1027700080916A0690916B06A0916C06B0916D06EF
:102780008093DE049093DF04A093E004B093E1040F
:1027900080E28093E2045092DB044092DA04CECFD0
:1027A000E0916E06F0916F068085823281F5E091AE
:1027B000E604F091E704828193810497059738F548
:1027C000848195810B970A9710F52CE033E04CE15A
:1027D00057E064E071E08FE00E9477038823B9F04E
:1027E00080916A0690916B06A0916C06B0916D067F
:1027F0008093DE049093DF04A093E004B093E1049F
:102800008FE08093E20483E090E00C94ED07009168
:10281000E8041091E9040630110508F4AFCDE09109
:10282000E604F091E7043296C3E0D0E025EC3DE900
:102830004CE151E88AE0F82E848195816191719193
:10284000F89E6001F99ED00C1124DB01AA0FBB1F7A
:10285000AA0FBB1FAA0FBB1FE12CCA16DB0688F00C
:10286000F69ED001F79EB00D112463E0880F991FEA
:102870006A95E1F7EE24E394A817B90710F482E013
:10288000E82E63E971E080E091E00E9463149B010F
:10289000AC012E252196C017D10771F62093DE04D6
:1028A0003093DF044093E0045093E10480E280938E
:1028B000E2041092DB041092DA0410926006109287
:1028C0005F060C94D908DB018F939F930E947314C9
:1028D000BF91AF91A29F800D911DA39F900DB29FBC
:1028E000900D112408950E947E14A59F900DB49F11
:1028F000900DA49F800D911D11240895A29FB001F9
:10290000B39FC001A39F700D811D1124911DB29F23
:10291000700D811D1124911D0895AA1BBB1B51E14F
:1029200007C0AA1FBB1FA617B70710F0A61BB70B3F
:10293000881F991F5A95A9F780959095BC01CD01E4
:102940000895EE0FFF1F0590F491E02D0994F8947F
:02295000FFCFB7
:102952001703170300000000D601360163012302AA
:1029620094017201860120000D0A002A2A202020EB
:102972002020202020202020202020202020202055
:102982002020202020202020202049276D20616C3B
:102992006976652121212048656C6C6F20776F7202
:1029A2006C64212121202020202020202020202092
:1029B2002020202020202020202020202020202015
:1029C200202020202020202020202A2A002A2A2AF3
:1029D2002A2A2A2A2A2A2A2A2A2A2A2A2A2A2A2A55
:1029E2002A2A2A2A2A2A2A2A2A2A2A2A2A2A2A2A45
:1029F2002A2A2A2A2A2A2A2A2A2A2A2A2A2A2A2A35
:102A02002A2A2A2A2A2A2A2A2A2A2A2A2A2A2A2A24
:102A12002A2A2A2A2A2A2A2A2A2A2A2A2A2A2A2A14
:102A22002A2A2A2A2A2A2A2A2A2A2A2A2A2A2A2A04
:102A32002A2A2A2A2A002A2A20202020202020206E
:102A42002020202020202020202020202020202084
:102A52002020202020202020205354414E442D426B
:102A620059202D205761697420616E792073656346
:102A72006F6E647320202020202020202020202020
:102A82002020202020202020202020202020202044
:102A9200202020202020202020202020202A2A0040
:102AA2002A2A202020202020202020202020202010
:102AB2002020202020202020202020204F4B2120B9
:102AC200596F752063616E20757365207468652087
:102AD20072656D6F746520636F6E74726F6C206EB9
:102AE2006F7721202020202020202020202020203D
:102AF20020202020202020202020202020202020D4
:102B02002020202020202A2A005468652066756E25
:102B12006374696F6E206465636F646528267265ED
:102B220073756C74732929206973206465707265EA
:102B3200636174656420616E64206D6179206E6FDB
:102B42007420776F726B206173206578706563748F
:102B5200656421204A75737420757365206465630A
:102B62006F6465282920776974686F757420612005
:102B7200706172616D6574657220616E6420497264
:102B820052656365697665722E6465636F64656418
:102B92004952446174612E3C6669656C646E616D74
:102BA200653E202E0050524F4752414D4D2031007C
:102BB20050524F4752414D4D20320050524F4752D2
:102BC200414D4D20330050524F4752414D4D20341C
:102BD2000050524F4752414D4D20350050524F4701
:102BE20052414D4D20360050524F4752414D4D20DB
:102BF200370050524F4752414D4D20380050524FEE
:102C02004752414D4D20390050524F4752414D4D90
:102C1200203130004D5554494E47004D454D4F52DD
:102C22005900524550454154004C454654204255A6
:102C320054544F4E00524947485420425554544F21
:102C42004E004F4B00524557494E44206F72204C64
:102C520041535400464F57415244206F72204E4513
:102C6200585400504C41590053544F5000564F4C49
:102C7200554D4520444F574E00564F4C554D45201B
:102C820055500053455256494345206F72204D45D9
:102C92004E55002A2A2020202020202020202020DB
:102CA20020202020202020202020202020204F4BC8
:102CB2002120596F752063616E20757365207468D9
:102CC200652072656D6F746520636F6E74726F6CD0
:102CD20020616761696E2120202020202020202091
:102CE20020202020202020202020202020202020E2
:102CF2002020202020202020202A2A00425554541F
:102D02004F4E20555000425554544F4E20444F5779
:102D12004E00425554544F4E2054562F56435200A3
:00000001FF
